:020000020000FC
:0200000033C00B
:020040008FC06F
:100068000FEF0DBF08E00EBF389A4098399A4198B3
:100078003A9A42983B9A43983C9A44983D9A4598B4
:10008800529A5A98539A5B98549A5C98559A5D98E4
:10009800569A5E9802E004BD0BE907BD05E005BD70
:1000A80002E000936E0000271127222733274427F8
:1000B80055276627772788279927AA2778940E94A3
:1000C800A4005395543008F055270E946C00F7CFD0
:1000D800503031F0513051F0523071F0533091F0CE
:1000E8005C985D985E985B9A722F12C05B985D98D9
:1000F8005E985C9A762F0CC05B985C985E985D9AC7
:10010800722F06C05B985C985D985E9A762F00C047
:10011800FF93EF93F1E0E0E7770FE70F40E0F41F7C
:100128007491EF91FF91972F98B996FD5A9A96FF7F
:100138005A98992798B996FD5A9A96FF5A98089509
:10014800143648F0112723952A3028F02227639582
:10015800663008F0662708950F930FB70F9313952D
:100168000F910FBF0F9118953F0006005B004F00DD
:1001780066006D007D0007007F00670077007C0047
:0801880039005E0079007100EE
:00000001FF
