:020000020000FC
:0200000033C00B
:020010007BC4AF
:02002C0064C4AA
:100068000FEF0DBF08E00EBF2098289A2198299A13
:1000780022982A9A23982B9A389A4098399A419824
:100088003A9A42983B9A43983C9A44983D9A4598A4
:10009800529A5A98539A5B98549A5C98559A5D98D4
:1000A800569A5E98259A2D98579A5F980DE0009376
:1000B80081000EE10093890003E80093880000277F
:1000C800009385000093840002E000936F0001E034
:1000D800009368000FE000936B0000E001E00093DC
:1000E80004010093060100E0009308010093090150
:1000F80000930001009301010093020100930301A2
:1001080000930701009305010027112722273327B1
:10011800442755276627772788279927AA27BB27A3
:10012800CC27DD27EE27FF2778940E949E000E94A7
:100138008E03FBCF403059F0413071F0423089F0E6
:100148004330A9F04430C9F04530C9F044270027AE
:100158005F980E94D90315C001E05F9A0E94D903F5
:1001680010C000275F982D9A0E94F3000AC001E092
:100178002D9A5F9A0E94F30004C0002702C000274E
:1001880000C0089520910001609101018091020151
:10019800A0910301089520910401609105018091C7
:1001A8000601A0910701089580910401A09105011D
:1001B8002091060160910701089520930001609342
:1001C800010180930201A093030108952093040183
:1001D8006093050180930601A093070108950130FB
:1001E80029F00E94C6000E94990108950E94CF003C
:1001F8000E94FF000895C0910C01C13029F0C09100
:100208000D01C13059F008950E94CF000E941C01D1
:10021800CF93CC27C0930C01CF9108950E94CF00B3
:100228000E948B01CF93CC27C0930C01CF910895E6
:10023800C0910B01C03031F0C13039F0C23041F00B
:10024800C33049F00E94320108950E943301089595
:100258000E94340108950E948A010895089508951E
:1002680023950E945704C0911001C03031F1C1306C
:1002780011F0C23091F0633029F02A3068F022275B
:10028800639506C0213040F022276627839526C053
:100298006530C8F16627839521C0623029F02A307D
:1002A80090F12227639504C0293068F122276395CD
:1002B800633048F16627839511C0633029F02A30EE
:1002C80010F12227639506C02230E8F0222766271E
:1002D800839504C06430B8F0662783950E943F0474
:1002E800C0911101C03011F0C13039F08A3058F096
:1002F8008827A395662721E006C0833020F081E097
:10030800AA27662721E00E94EA0008950895C0916F
:100318000B01C03031F0C13029F0C23021F0C330B8
:1003280019F00895089508950895C0910C01C130F9
:1003380029F0C0910D01C13049F008950E94B20121
:10034800CF93CC27C0930C01CF9108950E948003CE
:10035800CF93CC27C0930D01CF910895C0910B0185
:10036800C03031F0C13039F0C23041F0C33049F00B
:100378000E94C80108950E943C0208950E94AC02A0
:1003880008950E941803089523952A30A0F0222783
:100398006395663080F066278395A23021F4843017
:1003A80050F0882703C08A3030F08827A395A330FF
:1003B80010F0AA27B3950E94E1000E94CF00B03048
:1003C800E9F02395BB270E945704C0911001C03063
:1003D80031F1C13011F0C23091F0633029F02A3088
:1003E80068F02227639506C0213040F0222766274F
:1003F800839526C06430C8F16627839521C0623092
:1004080029F02A3090F12227639504C0293068F139
:1004180022276395633048F16627839511C06330BE
:1004280029F02A3010F12227639506C02230E8F01F
:1004380022276627839504C06430B8F06627839521
:100448000E943F04C0911101C03011F0C13039F051
:100458008A3058F08827A395662721E006C08330A4
:1004680020F081E0AA27662721E00E94EA0008958B
:100478006395663080F066278395A23021F4843036
:1004880050F0882703C08A3030F08827A395A3301E
:1004980010F0AA27B3950E94E1000E94CF00B03067
:1004A800E9F02395BB270E945704C0911001C03082
:1004B80031F1C13011F0C23091F0633029F02A30A7
:1004C80068F02227639506C0213040F0222766276E
:1004D800839526C06430C8F16627839521C06230B1
:1004E80029F02A3090F12227639504C0293068F159
:1004F80022276395633048F16627839511C06330DE
:1005080029F02A3010F12227639506C02230E8F03E
:1005180022276627839504C06430B8F06627839540
:100528000E943F04C0911101C03011F0C13039F070
:100538008A3058F08827A395662721E006C08330C3
:1005480020F081E0AA27662721E00E94EA000895AA
:100558008395A23021F4843050F0882703C08A3074
:1005680030F08827A395A33010F0AA27B3950E94EE
:10057800E1000E94CF00B030E9F02395BB270E942C
:100588005704C0911001C03031F1C13011F0C230B0
:1005980091F0633029F02A3068F02227639506C06D
:1005A800213040F022276627839526C06530C8F1A0
:1005B8006627839521C0623029F02A3090F12227DE
:1005C800639504C0293068F122276395633048F1A8
:1005D8006627839511C0633029F02A3010F122274D
:1005E800639506C02230E8F022276627839504C069
:1005F8006430B8F0662783950E943F04C0911101CA
:10060800C03011F0C13039F08A3058F08827A395EE
:10061800662721E006C0833020F081E0AA276627FC
:1006280021E00E94EA000895A395A23029F0A330A2
:1006380030F0AA27B39503C0843008F088270E94B9
:10064800E1000E94CF00B030E9F02395BB270E945B
:100658005704C0911001C03031F1C13011F0C230DF
:1006680091F0633029F02A3068F02227639506C09C
:10067800213040F022276627839526C06530C8F1CF
:100688006627839521C0623029F02A3090F122270D
:10069800639504C0293068F122276395633048F1D7
:1006A8006627839511C0633029F02A3010F122277C
:1006B800639506C02230E8F022276627839504C098
:1006C8006430B8F0662783950E943F04C0911101F9
:1006D800C03011F0C13039F08A3058F08827A3951E
:1006E800662721E006C0833020F081E0AA2766272C
:1006F80021E00E94EA000895C0910B01C03031F05A
:10070800C13029F0C23021F0C33019F0089508959E
:1007180008950895013011F0003019F00E94D800B2
:1007280002C00E94C600543010F0552708950E9458
:100738009F0353950895503031F0513051F05230A5
:1007480071F0533091F05C985D985E985B9A722FC7
:1007580012C05B985D985E985C9A762F0CC05B9887
:100768005C985E985D9A782F06C05B985C985D9857
:100778005E9A7A2F00C04F93FF93EF93F9E0EAED6A
:10078800770FE70F40E0F41F7491EF91FF914F91BD
:10079800972F98B996FD5A9A96FF5A98992798B91B
:1007A80096FD5A9A96FF5A9808950E94C6004230BC
:1007B80010F0112703C01637C0F0112723952A30EF
:1007C800A0F022276395663080F066278395A230D3
:1007D80021F4843050F0882703C08A3030F088270D
:1007E800A395A33010F0AA27B3950E94E1000E94B8
:1007F800CF00B030F1F02395BB270E945704C09179
:100808001001C03039F1C13011F0C23099F06330B5
:1008180029F02A3070F02227639506C0213048F06D
:1008280022276627839527C06430D0F166278395F1
:1008380022C021C0623029F02A3090F12227639526
:1008480004C0293068F122276395633048F1662790
:10085800839511C0633029F02A3010F1222763955F
:1008680006C02230E8F022276627839504C064304A
:10087800B8F0662783950E947104C0911101C030B9
:1008880011F0C13039F08A3058F08827A3956627CF
:1008980021E006C0833020F081E0AA27662721E006
:1008A8000E94EA000895843081F0863071F0893022
:1008B80061F0A13021F4813041F0823011F08230B2
:1008C80041F0CC27C093100107C0C1E0C0931001CC
:1008D80003C0C2E0C09310010895A13020F0C1E028
:1008E800C093110103C0CC27C093110108950F9341
:1008F8000FB70F9313951D9A0F910FBF0F9118956E
:100908000F930FB70F931F9313B110930801009122
:1009180008010093090108E61FEF1A95F1F70A95F7
:10092800D9F713B1109308010091080100930A0147
:100938000091090110910A01011729F5302F30FBA8
:10094800C0F9C093120131FBC0F9C093130132FB07
:10095800C0F9C093140133FBC0F9C0931501C091CD
:100968001201C0FF0E94CC04C0911301C0FF0E9475
:10097800CE04C0911401C0FF0E94D704C091150194
:10098800C0FF0E94E2041F910F910FBF0F911895AD
:100998004395089500910B010395043008F0002752
:1009A80000930B010895423019F0433009F005C057
:1009B800CF93C1E0C0930C01CF910895423019F054
:1009C800433009F005C0CF93C1E0C0930D01CF912A
:1009D80008953F0006005B005700660075007D0023
:1009E80007007F00670077007C0039005E0079000F
:0209F80071008C
:00000001FF
