:020000020000FC
:0200000033C00B
:02002C00B7C05B
:100068000FEF0DBF08E00EBF259A2D9808E1009309
:10007800600000E000936000389A4098399A4198EF
:100088003A9A42983B9A43983C9A44983D9A4598A4
:10009800529A5A98539A5B98549A5C98559A5D98D4
:1000A800569A5E980DE0009381000DE30093890055
:1000B80009E00093880000270093850000938400DE
:1000C80002E000936F0000271127222733274427D7
:1000D80055276627772788279927AA2778940E9483
:1000E800B4005395543008F055270E947C00F7CF90
:1000F800503031F0513051F0523071F0533091F0AE
:100108005C985D985E985B9A722F12C05B985D98B8
:100118005E985C9A762F0CC05B985C985E985D9AA6
:10012800782F06C05B985C985D985E9A7A2F00C01D
:10013800FF93EF93F1E0EEEA770FE70F40E0F41F4B
:100148007491EF91FF91972F98B996FD5A9A96FF5F
:100158005A98992798B996FD5A9A96FF5A980895E9
:100168001B33B8F0112723952A3098F0222763957E
:10017800663078F066278395A23021F4843048F001
:10018800882703C08A3028F08827A395A33008F071
:10019800AA2708950F930FB70F9313951D9A0F91E0
:1001A8000FBF0F9118953F0006005B004F006600D7
:1001B8006D007D0007007F00670077007C00390034
:0601C8005E0079007100E9
:00000001FF
