:020000020000FC
:0200000033C00B
:020010001EC20E
:02002C0007C209
:100068000FEF0DBF08E00EBF2098289A2198299A13
:1000780022982A9A23982B9A389A4098399A419824
:100088003A9A42983B9A43983C9A44983D9A4598A4
:10009800529A5A98539A5B98549A5C98559A5D98D4
:1000A800569A5E98259A2D98579A5F980DE0009376
:1000B800810000E00093890001E000938800002798
:1000C800009385000093840002E000936F0001E034
:1000D800009368000FE000936B0000E001E00093DC
:1000E80004010093060100E0009308010093090150
:1000F80000930001009301010093020100930301A2
:1001080000930701009305010027112722273327B1
:10011800442755276627772788279927AA27BB27A3
:10012800CC27DD27EE27FF2778940E949E000E94A7
:100138003F01FBCF403059F0413071F0423089F037
:100148004330A9F04430C9F04530C9F044270027AE
:100158005F980E948A0115C001E05F9A0E948A0197
:1001680010C000275F982D9A0CC00E94F30001E090
:100178002D9A5F9A0E94F30004C0002702C000274E
:1001880000C0089520910001609101018091020151
:10019800A0910301089520910401609105018091C7
:1001A8000601A0910701089580910401A09105011D
:1001B8002091060160910701089520930001609342
:1001C800010180930201A093030108952093040183
:1001D8006093050180930601A093070108950130FB
:1001E80011F0003029F10E94CF00C0910C01C130FC
:1001F80029F0C0910D01C13071F03CC0C0910B01D4
:10020800C03031F0C13029F0C23021F0C33019F0CC
:1002180002C001C000C0C0910B01C03031F0C13034
:1002280021F0C23011F0C33001F00E94EA0022C070
:100238000E94C600C0910C01C13029F0C0910D0187
:10024800C13059F017C0C0910B01C03031F0C13036
:1002580021F0C23011F0C33001F0C0910B01C03061
:1002680031F0C13021F0C23011F0C33001F00E94EA
:10027800E10000C00895013011F0003019F00E942B
:10028800D80002C00E94C600543010F055270895C7
:100298000E94500153950895503031F0513051F07B
:1002A800523071F0533091F05C985D985E985B9A8B
:1002B800722F12C05B985D985E985C9A762F0CC07E
:1002C8005B985C985E985D9A782F06C05B985C98FE
:1002D8005D985E9A7A2F00C04F93FF93EF93F4E0F6
:1002E800E0EF770FE70F40E0F41F7491EF91FF9173
:1002F8004F91972F98B996FD5A9A96FF5A98992731
:1003080098B996FD5A9A96FF5A9808950E94C60081
:10031800423010F0112703C01230C0F01127239586
:100328002A30A0F022276395663080F066278395EF
:10033800A23021F4843050F0882703C08A3030F08E
:100348008827A395A33010F0AA27B3950E94E1004F
:100358000E94CF00B030F1F02395BB270E94040221
:10036800C0911001C03039F1C13011F0C23099F09C
:10037800633029F02A3070F02227639506C02130B7
:10038800E0F122276627839528C06430B0F16627FC
:10039800839523C022C0623029F02A3070F12227C9
:1003A800639504C0293048F122276395633028F10A
:1003B8006627839512C0633029F02A30F0F022278F
:1003C800639506C02230C8F022276627839505C0AA
:1003D800643098F06627839500C0A13041F08A30D8
:1003E80060F08827A39581E0662721E006C0833066
:1003F80020F081E0AA27662721E00E94EA000895FC
:10040800843081F0863071F0893061F0A13021F4B8
:10041800813041F0823011F0823041F0CC27C09316
:10042800100107C0C1E0C093100103C0C2E0C0932F
:10043800100108950F930FB70F9313951D9A0F91FD
:100448000FBF0F9118950F930FB70F931F9313B109
:1004580010930801009108010093090108E61FEFB5
:100468001A95F1F70A95D9F713B11093080100917D
:10047800080100930A010091090110910A0101176E
:1004880069F4302F30FF0E94570231FF0E94590251
:1004980032FF0E94620233FF0E946D021F910F918A
:1004A8000FBF0F9118954395089500910B0103957F
:1004B800043008F0002700930B010895423019F02A
:1004C800433009F005C04F9341E040930C014F9130
:1004D8000895423019F0433009F005C05F9351E0A8
:1004E80050930D015F9108953F0006005B0057008F
:1004F800660075007D0007007F00670077007C00BC
:0805080039005E00790071006A
:00000001FF
