:020000020000FC
:0200000033C00B
:02004000A8C056
:100068000FEF0DBF08E00EBF389A4098399A4198B3
:100078003A9A42983B9A43983C9A44983D9A4598B4
:10008800529A5A98539A5B98549A5C98559A5D98E4
:10009800569A5E9802E004BD0BE907BD05E005BD70
:1000A80002E000936E0000271127222733274427F8
:1000B800552766279927AA2778940E94BD0053954B
:1000C800523008F055270E946A00F7CF503031F0BF
:1000D800513059F0523081F0533099F05C985D9866
:1000E8005E985B9A0E948B0011C05B985D985E9841
:1000F8005C9A0E94A4000AC05B985C985E985D9A1E
:1001080005C05B985C985D985E9A00C00895FF935F
:10011800EF93F1E0E2EA322F330FE30F40E0F41FF0
:100128003491EF91FF91932F98B996FD5A9A96FFC3
:100138005A98992798B996FD5A9A96FF5A98089509
:10014800FF93EF93F1E0E2EA362F330FE30F40E03D
:10015800F41F3491EF91FF91932F98B996FD5A9A15
:1001680096FF5A98992798B996FD5A9A96FF5A98E1
:100178000895143648F0112723952A3028F02227AD
:100188006395663008F0662708950F930FB70F93AD
:1001980013950F910FBF0F9118953F0006005B0054
:1001A8004F0066006D007D0007007F006700770044
:0A01B8007C0039005E007900710040
:00000001FF
