:020000020000FC
:0200000033C00B
:0200400081C07D
:100068000FEF0DBF08E00EBF389A4098399A4198B3
:100078003A9A42983B9A43983C9A44983D9A4598B4
:10008800529A5A98539A5B98549A5C98559A5D98E4
:10009800569A5E9802E004BD0BE907BD05E005BD70
:1000A80002E000936E0000271127222733274427F8
:1000B80055279927AA2778940E9499000E946700DB
:1000C8000E948700F9CF543008F05527503031F09E
:1000D800513049F0523061F0533079F05C985D98B6
:1000E8005E985B9A0FC05B985D985E985C9A0AC0B0
:1000F8005B985C985E985D9A05C05B985C985D9883
:100108005E9A00C00895FF93EF93F1E0E4E5322F83
:10011800330FE30F40E0F41F3491EF91FF91932FD9
:1001280098B996FD5A9A96FF5A98143630F01127C6
:10013800239553952A3008F0222708950F930FB777
:100148000F9313950F910FBF0F9118953F0006005D
:100158005B004F0066006D007D0007007F006700B0
:0C01680077007C0039005E007900710017
:00000001FF
