:020000020000FC
:0200000033C00B
:02001000EAC440
:02002C00D3C43B
:100068000FEF0DBF08E00EBF2098289A2198299A13
:1000780022982A9A23982B9A389A4098399A419824
:100088003A9A42983B9A43983C9A44983D9A4598A4
:10009800529A5A98539A5B98549A5C98559A5D98D4
:1000A800569A5E98259A2D98579A5F980DE0009376
:1000B80081000EE10093890003E80093880000277F
:1000C800009385000093840002E000936F0001E034
:1000D800009368000FE000936B0000E001E00093DC
:1000E80004010093060100E0009308010093090150
:1000F80000930001009301010093020100930301A2
:1001080000930701009305010027112722273327B1
:10011800442755276627772788279927AA27BB27A3
:10012800CC27DD27EE27FF2778940E949E000E94A7
:10013800F203FBCF403059F0413071F0423089F082
:100148004330A9F04430C9F04530C9F044270027AE
:100158005F980E943D0415C001E05F9A0E943D042B
:1001680010C000275F982D9A0E94F3000AC001E092
:100178002D9A5F9A0E94F30004C0002702C000274E
:1001880000C0089520910001609101018091020151
:10019800A0910301089520910401609105018091C7
:1001A8000601A0910701089580910401A09105011D
:1001B8002091060160910701089520930001609342
:1001C800010180930201A093030108952093040183
:1001D8006093050180930601A093070108950130FB
:1001E80029F00E94C6000E94E90108950E94CF00EC
:1001F8000E94FF000895C0910C01C13029F0C09100
:100208000D01C13059F008950E94CF000E941C01D1
:10021800CF93CC27C0930C01CF9108950E94CF00B3
:100228000E94DB01CF93CC27C0930C01CF91089596
:10023800C0910B01C03031F0C13039F0C23041F00B
:10024800C33049F00E94320108950E943301089595
:100258000E94340108950E948F0108950895089519
:1002680023950E94C004C0911001C03041F1C130F3
:1002780011F0C23099F0633029F02A3070F022274B
:10028800639506C0213048F022276627839529C048
:100298006530E0F1662721E0839523C0623029F0BC
:1002A8002A30A0F12227639504C0293078F122274B
:1002B8006395633058F121E06627839512C0633057
:1002C80029F02A3018F12227639506C02230F0F071
:1002D80022276627839505C06430C0F0662721E091
:1002E80083950E94A604C0911101C03011F0C1305D
:1002F80039F08A3058F08827A395662721E006C090
:10030800833020F081E0AA27662721E00E94E404D8
:100318000E94EA0008950E94C004C0911001C030F4
:10032800D1F0C13011F0C23041F06395643009F06A
:1003380024C0839521E0662720C06395633009F0C7
:1003480004C021E06627839518C0633058F121E086
:100358006627839512C0633029F02A3018F12227C6
:10036800639506C02230F0F022276627839505C0E2
:100378006430C0F021E0662783950E94A604C091EE
:100388001101C03011F0C13039F08A3058F0882797
:10039800A395662721E006C0833020F081E0AA27D4
:1003A800662721E00E94E4040E94EA000895C091B3
:1003B8000B01C03031F0C13029F0C23021F0C33018
:1003C80019F00895089508950895C0910C01C13059
:1003D80029F0C0910D01C13049F008950E94020230
:1003E800CF93CC27C0930C01CF9108950E94E403CA
:1003F800CF93CC27C0930D01CF910895C0910B01E5
:10040800C03031F0C13039F0C23041F0C33049F06A
:100418000E94180208950E94910208950E940603FE
:1004280008950E947703089523952A30A0F0222783
:100438006395663080F066278395A23021F4843076
:1004480050F0882703C08A3030F08827A395A3305E
:1004580010F0AA27B3950E94E1000E94CF00B030A7
:10046800F1F02395BB270E94C004C0911001C03051
:1004780041F1C13011F0C23099F0633029F02A30CF
:1004880070F02227639506C0213048F0222766279E
:10049800839529C06430E0F121E06627839523C065
:1004A800623029F02A30A0F12227639504C0293050
:1004B80078F122276395633058F121E06627839508
:1004C80012C0633029F02A3018F12227639506C03C
:1004D8002230F0F022276627839505C06430C0F0EB
:1004E80021E0662783950E94A604C0911101C030BF
:1004F80011F0C13039F08A3058F08827A395662763
:1005080021E006C0833020F081E0AA27662721E099
:100518000E94E4040E94EA0008956395663080F022
:1005280066278395A23021F4843050F0882703C0D1
:100538008A3030F08827A395A33010F0AA27B39506
:100548000E94E1000E94CF00B030F1F02395BB2754
:100558000E94C004C0911001C03041F1C13011F0B7
:10056800C23099F0633029F02A3070F02227639561
:1005780006C0213048F022276627839529C06430B9
:10058800E0F121E06627839523C0623029F02A3004
:10059800A0F12227639504C0293078F122276395BA
:1005A800633058F121E06627839512C0633029F043
:1005B8002A3018F12227639506C02230F0F022274E
:1005C8006627839505C06430C0F021E066278395CF
:1005D8000E94A604C0911101C03011F0C13039F059
:1005E8008A3058F08827A395662721E006C0833013
:1005F80020F081E0AA27662721E00E94E4040E94F7
:10060800EA0008958395A23021F4843050F08827B9
:1006180003C08A3030F08827A395A33010F0AA27AA
:10062800B3950E94E1000E94CF00B030F1F023950D
:10063800BB270E94C004C0911001C03041F1C130F5
:1006480011F0C23099F0633029F02A3070F0222777
:10065800639506C0213048F022276627839529C074
:100668006530E0F121E06627839523C0623029F0E8
:100678002A30A0F12227639504C0293078F1222777
:100688006395633058F121E06627839512C0633083
:1006980029F02A3018F12227639506C02230F0F09D
:1006A80022276627839505C06430C0F021E06627BD
:1006B80083950E94A604C0911101C03011F0C13089
:1006C80039F08A3058F08827A395662721E006C0BC
:1006D800833020F081E0AA27662721E00E94E40405
:1006E8000E94EA000895A395A23029F0A33030F0C3
:1006F800AA27B39503C0843008F088270E94E10038
:100708000E94CF00B030F1F02395BB270E94C004AF
:10071800C0911001C03041F1C13011F0C23099F0E0
:10072800633029F02A3070F02227639506C0213003
:1007380048F022276627839529C06530E0F121E03B
:100748006627839523C0623029F02A30A0F122273A
:10075800639504C0293078F122276395633058F1F6
:1007680021E06627839512C0633029F02A3018F1FA
:100778002227639506C02230F0F02227662783954A
:1007880005C0643021E0B8F0662783950E94A6046E
:10079800C0911101C03011F0C13039F08A3058F0E1
:1007A8008827A395662721E006C0833020F081E0E2
:1007B800AA27662721E00E94E4040E94EA0008951F
:1007C800C0910B01C03031F0C13029F0C23021F0A6
:1007D800C33019F00895089508950895013011F06F
:1007E800003019F00E94D80002C00E94C6005430A0
:1007F80010F0552708950E9403045395089550302A
:1008080031F0513051F0523071F0533091F05C9822
:100818005D985E985B9A722F12C05B985D985E989F
:100828005C9A762F0CC05B985C985E985D9A782FDE
:1008380006C05B985C985D985E9A7A2F00C04F93CB
:10084800FF93EF93FAE0E8EB770FE70F40E0F41F30
:100858007491EF91FF914F91972F98B996FD5A9AFD
:1008680096FF5A98992798B996FD5A9A96FF5A98DA
:1008780008950E94C600423010F0112703C01637B1
:10088800C0F0112723952A30A0F0222763956630FF
:1008980080F066278395A23021F4843050F08827B1
:1008A80003C08A3030F08827A395A33010F0AA2718
:1008B800B3950E94E1000E94CF00B030F9F0239573
:1008C800BB270E94C004C0911001C03049F1C1305B
:1008D80011F0C230A1F0633029F02A3078F02227D5
:1008E800639506C0213050F02227662783952AC0D9
:1008F8006430E8F121E06627839524C023C0623084
:1009080029F02A30A0F12227639504C0293078F114
:1009180022276395633058F121E06627839512C03A
:10092800633029F02A3018F12227639506C0223057
:10093800F0F022276627839505C06430C0F021E0D7
:10094800662783950E94DA04C0911101C03011F026
:10095800C13039F08A3058F08827A395662721E0FE
:1009680006C0833020F081E0AA27662721E00E9494
:10097800E4040E94EA000895843081F0863071F022
:10098800893061F0A13021F4813041F0823011F0DA
:10099800823041F0CC27C093100107C0C1E0C0935A
:1009A800100103C0C2E0C09310010895A13020F0E7
:1009B800C1E0C093110103C0CC27C0931101089571
:1009C800603019F4203009F421E008950F930FB72F
:1009D8000F9313951D9A0F910FBF0F9118950F93B1
:1009E8000FB70F931F9313B11093080100910801DB
:1009F8000093090108E61FEF1A95F1F70A95D9F750
:100A080013B1109308010091080100930A010091A5
:100A1800090110910A01011729F5302F30FBC0F99F
:100A2800C093120131FBC0F9C093130132FBC0F926
:100A3800C093140133FBC0F9C0931501C091120192
:100A4800C0FF0E943B05C0911301C0FF0E943D05F5
:100A5800C0911401C0FF0E944605C0911501C0FF56
:100A68000E9451051F910F910FBF0F911895439543
:100A7800089500910B010395043008F000270093B6
:100A88000B010895423019F0433009F005C0CF93A7
:100A9800C1E0C0930C01CF910895423019F0433062
:100AA80009F005C0CF93C1E0C0930D01CF9108951F
:100AB8003F0006005B005700660075007D000700D8
:100AC8007F00670077007C0039005E0079007100C4
:00000001FF
