:020000020000FC
:0200000033C00B
:0200100038C1F5
:02002C0021C1F0
:100068000FEF0DBF08E00EBF01E000930601259ACF
:100078002D982098289A2198299A22982A9A239884
:100088002B9A389A4098399A41983A9A42983B9ACA
:1000980043983C9A44983D9A4598529A5A98539A4C
:1000A8005B98549A5C98559A5D98569A5E980DE0BC
:1000B800009381000EE10093890003E80093880013
:1000C8000027009385000093840002E000936F00EE
:1000D80001E0009368000FE000936B0000E001E08E
:1000E800009305010093060100E0009308010093C6
:1000F800090100930001009301010093020100939C
:100108000301009307010093040100271127222708
:100118003327442755276627772788279927AA272B
:10012800BB27CC27DD27EE27FF2778940E94E9001C
:100138000E949F00FBCF20910001609101018091F6
:100148000201A0910301543010F0552708950E9430
:10015800AF0053950895503031F0513051F052307E
:1001680071F0533091F05C985D985E985B9A722FAD
:1001780012C05B985D985E985C9A762F0CC05B986D
:100188005C985E985D9A782F06C05B985C985D983D
:100198005E9A7A2F00C04F93FF93EF93F2E0E2EF5D
:1001A800770FE70F40E0F41F7491EF91FF914F91A3
:1001B800972F98B996FD5A9A96FF5A98992798B901
:1001C80096FD5A9A96FF5A980895209100016091D9
:1001D800010180910201A09103011637C0F0112797
:1001E80023952A30A0F022276395663080F0662791
:1001F8008395A23021F4843050F0882703C08A30D8
:1002080030F08827A395A33010F0AA27B395209340
:1002180000016093010180930201A09303012091E2
:1002280004016091050180910601A0910701B03099
:1002380091F02395BB27843059F0863049F08930F6
:1002480039F0A13011F4813019F0823011F002C078
:1002580002C001C000C0209304016093050180938F
:100268000601A093070108950F930FB70F931395F5
:100278001D9A0F910FBF0F9118950F930FB70F93FA
:100288001F9313B11093080100910801009309010D
:1002980008E61FEF1A95F1F70A95D9F713B11093ED
:1002A80008010091080100930A01009109011091C9
:1002B8000A01011769F4302F30FF0E94710131FFE4
:1002C8000E94730132FF0E94750133FF0E9477017B
:1002D8001F910F910FBF0F9118951D9A08951D9AA0
:1002E80008951D9A08951D9A08953F0006005B0021
:1002F8005700660075007D0007007F0067007700E3
:0A0308007C0039005E0079007100EE
:00000001FF
