:020000020000FC
:0200000033C00B
:0200100073C5B6
:02002C005CC5B1
:100068000FEF0DBF08E00EBF2098289A2198299A13
:1000780022982A9A23982B9A389A4098399A419824
:100088003A9A42983B9A43983C9A44983D9A4598A4
:10009800529A5A98539A5B98549A5C98559A5D98D4
:1000A800569A5E98259A2D98249A2C98579A5F9874
:1000B8000DE0009381000EE10093890003E80093AE
:1000C80088000027009385000093840002E00093D5
:1000D8006F0001E0009368000FE000936B0000E000
:1000E80001E0009304010093060100E00093080179
:1000F800009309010093000100930101009302019C
:100108000093030100930701009305010093160172
:100118000093170100931801009319010027112774
:1001280022273327442755276627772788279927A3
:10013800AA27BB27CC27DD27EE27FF2778940E9424
:10014800A8000E943F04FBCF403059F0413079F0BD
:10015800423091F04330B1F04430D1F04530F1F005
:10016800442700275F982C980E948F041DC001E047
:100178005F9A0E948F0418C000275F982D9A0E94EA
:10018800180112C001E02D9A5F9A0E9418010CC054
:1001980002E02D985F9A0E943C0506C002E02D9867
:1001A8005F9A0E94720500C0089520910001609135
:1001B800010180910201A091030108952091040199
:1001C8006091050180910601A09107010895809131
:1001D8000401A0910501209106016091070108958D
:1001E800209300016093010180930201A093030111
:1001F8000895209304016093050180930601A0935C
:100208000701089520911601609117018091180146
:10021800A091190108952093160160931701809306
:100228001801A09319010895013029F00E94D900FE
:100238000E94360208950E94E2000E942401089557
:10024800C0910C01C13029F0C0910D01C13059F0A5
:1002580008950E94E2000E944101CF93CC27C093E9
:100268000C01CF9108950E94E2000E942802CF93CA
:10027800CC27C0930C01CF910895C0910B01C030D9
:1002880031F0C13039F0C23041F0C33049F00E943A
:10029800570108950E94720108950E9487010895E8
:1002A8000E94E20108950E94F8048395C09111010B
:1002B800C03011F0C13039F08A3058F08827A39542
:1002C800662721E006C0833020F081E0AA27662750
:1002D80021E00E9436050E94FD000895A395A130F3
:1002E80021F0AA270E94FD000895803031F0813066
:1002F80021F0823011F0AA2781E00E94FD000895C4
:100308000E94FD00089523950E941205C0911001D6
:10031800C03041F1C13011F0C23099F0633029F09A
:100328002A3070F02227639506C0213048F0222732
:100338006627839529C06530E0F1662721E083951B
:1003480023C0623029F02A30A0F12227639504C027
:10035800293078F122276395633058F121E0662728
:10036800839512C0633029F02A3018F1222763954B
:1003780006C02230F0F022276627839505C0643036
:10038800C0F0662721E083950E94F804C09111010E
:10039800C03011F0C13039F08A3058F08827A39561
:1003A800662721E006C0833020F081E0AA2766276F
:1003B80021E00E9436050E94FD0008950E94120562
:1003C800C0911001C030C1F0C13011F0C23061F0ED
:1003D8006395643029F0633009F01CC02030D1F0F7
:1003E800839521E0662716C06395633009F012C033
:1003F80021E0662783950EC06395633019F0643059
:1004080029F008C0203031F0213021F0839521E017
:10041800662700C00E94F804C0911101C03011F095
:10042800C13039F08A3058F08827A395662721E033
:1004380006C0833020F081E0AA27662721E00E94C9
:1004480036050E94FD000895C0910B01C03031F0BF
:10045800C13029F0C23021F0C33019F00895089551
:1004680008950895C0910C01C13029F0C0910D0183
:10047800C13049F008950E944F02CF93CC27C09312
:100488000C01CF9108950E943104CF93CC27C093DB
:100498000D01CF910895C0910B01C03031F0C130EA
:1004A80039F0C23041F0C33049F00E946502089526
:1004B8000E94DE0208950E94530308950E94C40317
:1004C800089523952A30A0F022276395663080F09E
:1004D80066278395A23021F4843050F0882703C022
:1004E8008A3030F08827A395A33010F0AA27B39557
:1004F8000E94F4000E94E200B030F1F02395BB277F
:100508000E941205C0911001C03041F1C13011F0B4
:10051800C23099F0633029F02A3070F022276395B1
:1005280006C0213048F022276627839529C0643009
:10053800E0F121E06627839523C0623029F02A3054
:10054800A0F12227639504C0293078F1222763950A
:10055800633058F121E06627839512C0633029F093
:100568002A3018F12227639506C02230F0F022279E
:100578006627839505C06430C0F021E0662783951F
:100588000E94F804C0911101C03011F0C13039F057
:100598008A3058F08827A395662721E006C0833063
:1005A80020F081E0AA27662721E00E9436050E94F4
:1005B800FD0008956395663080F066278395A23024
:1005C80021F4843050F0882703C08A3030F088271F
:1005D800A395A33010F0AA27B3950E94F4000E94B7
:1005E800E200B030F1F02395BB270E941205C091BC
:1005F8001001C03041F1C13011F0C23099F06330C0
:1006080029F02A3070F02227639506C0213048F07F
:1006180022276627839529C06430E0F121E0662708
:10062800839523C0623029F02A30A0F122276395F0
:1006380004C0293078F122276395633058F121E00E
:100648006627839512C0633029F02A3018F12227D3
:10065800639506C02230F0F022276627839505C0EF
:100668006430C0F021E0662783950E94F804C091A9
:100678001101C03011F0C13039F08A3058F08827A4
:10068800A395662721E006C0833020F081E0AA27E1
:10069800662721E00E9436050E94FD000895839593
:1006A800A23021F4843050F0882703C08A3030F01B
:1006B8008827A395A33010F0AA27B3950E94F400C9
:1006C8000E94E200B030F1F02395BB270E9412058A
:1006D800C0911001C03041F1C13011F0C23099F021
:1006E800633029F02A3070F02227639506C0213044
:1006F80048F022276627839529C06530E0F121E07C
:100708006627839523C0623029F02A30A0F122277A
:10071800639504C0293078F122276395633058F136
:1007280021E06627839512C0633029F02A3018F13A
:100738002227639506C02230F0F02227662783958A
:1007480005C06430C0F021E0662783950E94F80454
:10075800C0911101C03011F0C13039F08A3058F021
:100768008827A395662721E006C0833020F081E022
:10077800AA27662721E00E9436050E94FD000895F9
:10078800A395A23029F0A33030F0AA27B39503C06F
:10079800843008F088270E94F4000E94E200B030FC
:1007A800F1F02395BB270E941205C0911001C030BB
:1007B80041F1C13011F0C23099F0633029F02A308C
:1007C80070F02227639506C0213048F0222766275B
:1007D800839529C06530E0F121E06627839523C021
:1007E800623029F02A30A0F12227639504C029300D
:1007F80078F122276395633058F121E066278395C5
:1008080012C0633029F02A3018F12227639506C0F8
:100818002230F0F022276627839505C0643021E056
:10082800B8F0662783950E94F804C0911101C03082
:1008380011F0C13039F08A3058F08827A39566271F
:1008480021E006C0833020F081E0AA27662721E056
:100858000E9436050E94FD000895C0910B01C0302A
:1008680031F0C13029F0C23021F0C33019F00895B9
:10087800089508950895023021F0013029F00030DC
:1008880031F00E94060105C00E94EB0002C00E94E0
:10089800D900543010F0552708950E9455045395F7
:1008A8000895503031F0513051F0523071F05330DA
:1008B80091F05C985D985E985B9A722F12C05B9875
:1008C8005D985E985C9A762F0CC05B985C985E98F1
:1008D8005D9A782F06C05B985C985D985E9A7A2F2F
:1008E80000C04F93FF93EF93FBE0E2ED770FE70F24
:1008F80040E0F41F7491EF91FF914F91972F98B9B1
:1009080096FD5A9A96FF5A98992798B996FD5A9A39
:1009180096FF5A9808950E94D900423010F0112786
:1009280003C01637C0F0112723952A30A0F02227DC
:100938006395663080F066278395A23021F4843071
:1009480050F0882703C08A3030F08827A395A33059
:1009580010F0AA27B3950E94F4000E94E200B0307C
:10096800F9F02395BB270E941205C0911001C030F1
:1009780049F1C13011F0C230A1F0633029F02A30BA
:1009880078F02227639506C0213050F02227662789
:1009980083952AC06430E8F121E06627839524C056
:1009A80023C0623029F02A30A0F12227639504C0C1
:1009B800293078F122276395633058F121E06627C2
:1009C800839512C0633029F02A3018F122276395E5
:1009D80006C02230F0F022276627839505C06430D0
:1009E800C0F021E0662783950E942C05C091110173
:1009F800C03011F0C13039F08A3058F08827A395FB
:100A0800662721E006C0833020F081E0AA27662708
:100A180021E00E9436050E94FD000895843081F08F
:100A2800863071F0893061F0A13021F4813041F0D5
:100A3800823011F0823041F0CC27C093100107C0FA
:100A4800C1E0C093100103C0C2E0C0931001089533
:100A5800A13020F0C1E0C093110103C0CC27C0939E
:100A680011010895603019F4203009F421E0089547
:100A7800C0910C01C03091F00E940601C0910B0199
:100A8800C03069F0C13071F0C23079F0C33081F004
:100A9800CF93CC27C0930C01CF91089508950E945D
:100AA8005F0508950E94660508950E946A050895E5
:100AB8000E946E05089523952A3008F022270E9487
:100AC8000F01089561E00E940F01089581E00E94DE
:100AD8000F010895A1E00E940F01089508952F9332
:100AE8002FB72F9313951D9A2F912FBF2F911895DC
:100AF8000F930FB70F931F9313B110930801009131
:100B080008010093090108E61FEF1A95F1F70A9505
:100B1800D9F713B1109308010091080100930A0155
:100B28000091090110910A01011729F5302F30FBB6
:100B3800C0F9C093120131FBC0F9C093130132FB15
:100B4800C0F9C093140133FBC0F9C0931501C091DB
:100B58001201C0FF0E94C405C0911301C0FF0E948A
:100B6800C605C0911401C0FF0E94CF05C0911501B0
:100B7800C0FF0E94DC051F910F910FBF0F911895C0
:100B88004395089500910B010395043008F0002760
:100B980000930B010895423029F0433019F0443096
:100BA80009F005C0CF93C1E0C0930C01CF9108951F
:100BB800423029F0433019F0443009F005C0CF9392
:100BC800C1E0C0930D01CF9108953F0006005B007E
:100BD8005700660075007D0007007F0067007700FA
:0A0BE8007C0039005E007900710006
:00000001FF
